:100000003FC0000059C0000057C0000055C00000AC
:1000100053C0000051C000004FC000004DC00000A0
:100020004BC0000003C5000045C1000037C20000FE
:1000300061C200000C94C4083FC000003DC0000035
:100040003BC0000039C0000037C0000035C00000D0
:1000500033C0000031C000002FC000002DC00000E0
:100060002BC0000029C0000048064E065106540669
:1000700057065A065D0660066306660669066C0644
:1000800011241FBECFEFD8E0DEBFCDBF11E0A0E04E
:10009000B1E0E0E0F6E102C005900D92A231B107B7
:1000A000D9F711E0A2E1B1E001C01D92AE33B10772
:1000B000E1F709D00C94FE0AA3CF809100018F5F75
:1000C000809300010895A1E0B0E0E9E6F0E00C942F
:1000D0009E0982E08983CE01019661E0A3D480E08D
:1000E0006CED75E033D286E990E066E970E0E0D02F
:1000F00080E066E970E059D280E060E476E026D2E4
:1001000088EB9BE0CDD480E06CED75E01FD288EBEE
:100110009BE0C6D480E064E175E018D288EB9BE0F8
:10012000BFD480E06CED75E011D288EB9BE0B8D4D1
:10013000E3CF282F883068F481E090E002C0880F78
:10014000991F2A95E2F7282FAAE2B0E0EBE2F0E04F
:1001500029C08E3080F430E02850304081E090E0BB
:1001600002C0880F991F2A95E2F7282FA4E2B0E079
:10017000E5E2F0E017C0853130F020E0A0E0B0E02B
:10018000E0E0F0E00FC030E02E50304081E090E041
:1001900002C0880F991F2A95E2F7282FA7E2B0E046
:1001A000E8E2F0E06F3F19F48081822709C06623FE
:1001B00019F08081822B04C09081822F8095892341
:1001C00080838C91822B8C930895E0EBF0E083EF99
:1001D0008083808184BDE1EBF0E082E080838081D8
:1001E00085BDE4EBF0E010828081E3EBF0E08083FA
:1001F000808188BD88B587BD86E060E09ADF85E0B4
:1002000060E097DF8BE060E094DF83E060E091CF17
:1002100080911201882321F481E080931201D5CFCF
:100220000895CF93DF93EC01F3DFD7FD02C020E008
:1002300004C0D095C195DF4F21E0CE01CF3FD1055D
:1002400019F014F08FEF90E0222319F018BC87BD4D
:1002500002C088BD17BCDF91CF910895CF93DF9383
:10026000EC01D6DFD7FD02C020E004C0D095C195D7
:10027000DF4F21E0CE01CF3FD10519F014F08FEF11
:1002800090E0222329F01092B4008093B30004C0C0
:100290008093B4001092B300DF91CF9108950F9333
:1002A0001F938B01BEDFC801D9DF1F910F91089505
:1002B000F6CF08951F920F920FB60F9211242F932D
:1002C0003F934F935F936F938F939F93AF93BF939E
:1002D000CF93DF93EF93FF93809121018F5F87701E
:1002E00080932101682F6F5F677080911F016817ED
:1002F00028F010928900109288004AC0862F90E062
:10030000880F991FA0911301B0911401A80FB91F74
:100310002D913C911197E0911B01F0911C01E80F88
:10032000F91F408151814115510519F12115310500
:1003300001F1E0911701F0911801E80FF91F019008
:10034000F081E02D3097A9F02E173F0740F4CA0145
:10035000820F931F8E179F07A8F4FC0113C0CF01D3
:10036000840F951F2817390768F0F901E41BF50B76
:1003700009C0E0911701F0911801E80FF91F0190F1
:10038000F081E02DF0938900E0938800ED93FC93D9
:1003900080912001681728F010928B0010928A003B
:1003A0003DC0862F90E0880F991FC0911501D09114
:1003B0001601C80FD91F48815981E0911D01F091A4
:1003C0001E01E80FF91F0190F081E02DA0911901A5
:1003D000B0911A013097C1F0A80FB91F2D913C912F
:1003E0004217530738F4E40FF51FE217F30780F4C0
:1003F0009F010EC0C9018E0F9F1F4817590740F07B
:100400009A012E1B3F0B04C0A80FB91F2D913C91E0
:1004100030938B0020938A003983288390912101A7
:1004200080911F01981788F483E0989FC0011124E0
:10043000E0912201F0912301E80FF91FA081B18121
:100440009C918281809589238C9390912101809148
:100450002001981788F483E0989FC0011124E0914F
:100460002401F0912501E80FF91FA081B1819C9131
:100470008281809589238C93FF91EF91DF91CF91B9
:10048000BF91AF919F918F916F915F914F913F91EC
:100490002F910F900FBE0F901F9018951F920F92E3
:1004A0000FB60F9211248F939F93AF93BF93EF9347
:1004B000FF939091210180911F01981780F483E0B0
:1004C000989FC0011124E0912201F0912301E80FCF
:1004D000F91FA081B1818C91928189278C93FF9122
:1004E000EF91BF91AF919F918F910F900FBE0F90A1
:1004F0001F9018951F920F920FB60F9211248F9391
:100500009F93AF93BF93EF93FF93909121018091BD
:100510002001981780F483E0989FC0011124E09196
:100520002401F0912501E80FF91FA081B1818C9180
:10053000928189278C93FF91EF91BF91AF919F9109
:100540008F910F900FBE0F901F901895982F80914C
:100550001F01981748F580916F008F7D80936F0081
:10056000892F90E087709070880F991FE091170194
:10057000F0911801E80FF91F9B0189E063397807B2
:1005800010F022E939E0C90153E0880F991F5A950C
:10059000E1F7220F331F820F931F91838083809195
:1005A0006F00806280936F000895982F80911F01E3
:1005B0009817F8F480916F008F7D80936F00892FDA
:1005C00090E087709070880F991FE0911B01F09167
:1005D0001C01E80FF91FCB0121E6693A720710F000
:1005E00088EA91E69183808380916F008062809396
:1005F0006F0008958091220190912301009729F0C6
:1006000064D71092230110922201809113019091DE
:100610001401009729F059D7109214011092130178
:100620008091170190911801009729F04ED71092F0
:1006300018011092170180911B0190911C010097E5
:1006400029F043D710921C0110921B0180912401C4
:1006500090912501009729F038D71092250110922A
:1006600024018091150190911601009729F02DD752
:1006700010921601109215018091190190911A01A2
:10068000009729F022D710921A0110921901809137
:100690001D0190911E01009729F017D710921E019D
:1006A00010921D010895A0E0B0E0E8E5F3E03FC638
:1006B000082FE92EC42EB52E10926F001092310132
:1006C00081E0809301011092330110923201109267
:1006D0008100F62E88E0861710F4F8E0FF2EF092E5
:1006E0001F0182E080938000D22EE8E0E21710F430
:1006F000E8E0DE2ED09220017DDF13E0F19EC00104
:10070000112449D6809322019093230180911F01E7
:1007100090E0880F991F3FD68093130190931401A6
:1007200080911F0190E0880F991F35D680931701A3
:100730009093180180911F0190E0880F991F2BD68C
:100740009C0190931C0180931B0180912201909148
:100750002301892B09F459C0809113019091140150
:10076000892B09F452C08091170190911801892BAF
:1007700009F44BC0232B09F448C0DD2051F4802F2D
:100780009E2D9C01B90130E040E050E001E010E016
:100790008AC0D19EC0011124FED58093240190937C
:1007A00025018091200190E0880F991FF4D5809356
:1007B0001501909316018091200190E0880F991FF8
:1007C000EAD58093190190931A018091200190E05D
:1007D000880F991FE0D59C0190931E0180931D0105
:1007E0008091240190912501892B79F08091150148
:1007F00090911601892B49F08091190190911A016D
:10080000892B19F0232B09F0BACFF4DE81E006C161
:10081000C0912201D0912301C40FD51FFB0180811B
:10082000883060F4F80102C0EE0FFF1F8A95E2F7EE
:100830002E2FABE2B0E0EAE2F0E025C08E3070F49B
:1008400090E00897F80102C0EE0FFF1F8A95E2F7CB
:100850002E2FA5E2B0E0E4E2F0E015C0853130F0E3
:10086000A0E0B0E0E0E0F0E020E00DC090E00E9706
:10087000F80102C0EE0FFF1F8A95E2F72E2FA8E2C3
:10088000B0E0E7E2F0E08C91922F909598239C9352
:100890008081822B8083B983A8832A833F5F4D5F49
:1008A0005F4F6F5F7F4F3F1508F4B2CF20E01DC050
:1008B000822F90E0880F991FE0911301F0911401AD
:1008C000E80FF91F11821082E0911701F0911801D1
:1008D000E80FF91F11821082E0911B01F0911C01B9
:1008E000E80FF91F118210822F5F80911F012817D6
:1008F000F8F28C2D9B2D9C01890130E040E050E006
:1009000060E070E0A1E0EA2EF12C65C0C091240106
:10091000D0912501C60FD71FF8018081883060F47F
:10092000F70102C0EE0FFF1F8A95E2F72E2FABE210
:10093000B0E0EAE2F0E025C08E3070F490E0089775
:10094000F70102C0EE0FFF1F8A95E2F72E2FA5E2F6
:10095000B0E0E4E2F0E015C0853130F0A0E0B0E0B6
:10096000E0E0F0E020E00DC090E00E97F70102C05B
:10097000EE0FFF1F8A95E2F72E2FA8E2B0E0E7E224
:10098000F0E09C91822F809589238C938081822B2B
:100990008083B983A8832A83E0911501F091160121
:1009A000E40FF51F11821082E0911901F0911A01F4
:1009B000E40FF51F11821082E0911D01F0911E01DC
:1009C000E40FF51F118210823F5F4E5F5F4F6D5F36
:1009D0007F4F0F5F1F4F3D1508F498CF10922101F4
:1009E00081E18093810088EA91E69093870080936B
:1009F00086008FEF86BB80916F00806280936F00CE
:100A0000DD2029F080916F00846080936F008091D9
:100A10006F00826080936F00789480E0CDB7DEB77E
:100A2000E9E0A1C440E050E020E03DCE2F928F935A
:100A30009F932FB680912701909128010196809372
:100A400027019093280190E080912901891F8093CC
:100A5000290190912F019C5F90932F0180912E018D
:100A600080519742C0F090932F0180932E01809186
:100A70002A0190912B01019680932A0190932B01DA
:100A800090E080912C01891F80932C0180912D0191
:100A9000891F80932D012FBE9F918F912F901895C4
:100AA00028EE33E009C0F9016F9364E06A95F1F72D
:100AB0006F913197C9F701970097A9F70895A0E0C2
:100AC000B0E0E4E6F5E032C4FC015B01C42E8091A5
:100AD00031018823C9F481E08093310110926F00C5
:100AE00083E28093800081E18093810010928200F4
:100AF00080E197E2909389008093880010928B00A8
:100B000010928A00229A789410920101F7FD03C096
:100B1000DD24D39403C0FF772AE0D22E8091810098
:100B2000082F10E0087F107088ECD89EC0011124B7
:100B30008E179F07B8F4EF0187E2E131F80710F054
:100B4000C0E1D7E2BE017695679580E090E06058FD
:100B5000794687469F4F9E0140E050E0A2D379013D
:100B6000016023C088E2D89E802D1124C82FD0E0D8
:100B7000CE17DF0708F4EF01BE01769567959E0159
:100B800040E050E08AE0D81639F480E090E0605E02
:100B9000734481449F4F06C080E090E060537D4ED7
:100BA0008C4E9F4F7ED3790102608AE0D81631F4D3
:100BB000CE0105966AE070E060D3EB0183E0C83EA9
:100BC000D80711F4B5010DC0BE0180E090E0950199
:100BD00040E050E027D328EE33E040E050E083D3FC
:100BE000B90110926F0000938100F0928900E092A9
:100BF0008800E0918800F0918900AC2DA03108F0C8
:100C0000AFE080E190E08A1B910902C0F695E7957C
:100C10008A95E2F7F0938B00E0938A007093390194
:100C20006093380186B38FEF86BB81E080936F00BD
:100C3000CDB7DEB7EAE096C3CF93DF93EB018F3FEA
:100C400011F0442329F488EE93E0BE0140E064C033
:100C5000813110F420E005C0282F2051203608F003
:100C60002FE5822F6CE0FDD2382F682F70E084EFE3
:100C70009FEF689FF001699FF00D789FF00D1124A0
:100C8000E20FF11DEC30F10530F4EC5CFF4F7DC359
:100C90008CE991E023C080E090E020C085EB91E0FA
:100CA0001DC08FEC91E01AC08AEE91E017C087E07A
:100CB00092E014C086E292E011C087E492E00EC098
:100CC00089E692E00BC08EE892E008C085EB92E0E6
:100CD00005C08EED92E002C08AE093E0373071F0FB
:100CE00002C0880F991F6A95E2F7323020F005960E
:100CF0006AE070E00BC0805090480AC036E0880F70
:100D0000991F3A95E1F7029665E070E0B6D2CB0103
:100D1000403108F04FE0BE01D2DEDF91CF9108955F
:100D200030913601E0913201F0913301332311F01B
:100D3000249101C02081822F81548A3108F4205EE1
:100D4000203259F4809132019091330101969093B1
:100D5000330180933201019729F7822F0895CF93B1
:100D6000DF93DEDF282FC0E0D0E01CC0CE0153E0CF
:100D7000880F991F5A95E1F7CC0FDD1FC80FD91FB7
:100D8000822F992787FD9095C80FD91FE0978091F2
:100D90003201909133010196909333018093320197
:100DA000BFDF282F822F80538A3000F3CE01DF91DE
:100DB000CF910895A0E0B0E0EFEDF6E0B5C28090ED
:100DC0000201B0903401BB2021F06091350166230F
:100DD00099F4A09035010091070110910801E0906D
:100DE0000301F0900401C0910501D0910601C0906B
:100DF0000901D0900A0103C18FEF70E040E01CDFD1
:100E000010923501BDC194E0892EBB2404EF11E09E
:100E100084E0E82EF12CC0EDD7E0B4E09B2EAFE0EB
:100E2000CA2ED12C7DDF282F809132019091330181
:100E300001969093330180933201263609F498C0CD
:100E40002736CCF42236A1F1233674F42E3361F127
:100E50002F3334F42132B9F22C3309F004C126C007
:100E6000213609F000C11AC1243609F451C02536D3
:100E70000CF066C035C02F3609F4BFC0203754F4DB
:100E80002C3609F4A5C02D3609F4A5C0273609F083
:100E9000EAC086C0243709F4CEC0263709F4E0C082
:100EA000223709F0E0C0ADC08394BCCF8A94BACF9A
:100EB000A0923501B092340110930801009307010C
:100EC000F0920401E0920301D0930601C093050162
:100ED00090920201D0920A01C09209012BE0F5C064
:100EE000A0923501B09234011093080100930701DC
:100EF000F0920401E0920301D0930601C093050132
:100F000090920201D0920A01C092090120E0DDC056
:100F1000A0923501B09234011093080100930701AB
:100F2000F0920401E0920301D0930601C093050101
:100F300090920201D0920A01C092090122E0C5C03C
:100F4000A0923501B092340110930801009307017B
:100F5000F0920401E0920301D0930601C0930501D1
:100F600090920201D0920A01C092090124E0ADC022
:100F7000A0923501B092340110930801009307014B
:100F8000F0920401E0920301D0930601C0930501A1
:100F900090920201D0920A01C092090125E095C009
:100FA000A0923501B092340110930801009307011B
:100FB000F0920401E0920301D0930601C093050171
:100FC00090920201D0920A01C092090127E07DC0EF
:100FD000C6DE7C0140C0A4DE8C3611F4BB2403C005
:100FE000AA24BB24B39480913201909133010196DD
:100FF000909333018093320115CFB1DE882E982C67
:1010000011CFA0923501B0923401109308010093E2
:101010000701F0920401E0920301D0930601C0930E
:10102000050190920201D0920A01C092090120E0CC
:10103000FF24F3944BC093DEBC0180EC9DE51DD1F1
:10104000CB01EB01F3E0CC0FDD1FFA95E1F7880F40
:10105000991FC80FD91FCE01B7010FD18B01E2CE66
:101060007EDE6C01DFCEA0923501B0923401109388
:10107000080100930701F0920401E0920301D0936C
:101080000601C093050190920201D0920A01C0921C
:101090000901109233011092320172C0A092350101
:1010A000B09234011093080100930701F0920401FB
:1010B000E0920301D0930601C093050190920201D2
:1010C000D0920A01C092090129E0FF248CE0889E99
:1010D000C0011124E22EE80E0AC0809132019091E5
:1010E000330101969093330180933201E39418DE2B
:1010F0008B3299F3833289F30BC080913201909146
:10110000330101969093330180933201EA9408DE13
:101110008D3299F3C0910701D09108018153883035
:1011200048F4009105011091060119DEBC01C801C7
:10113000A4D0EB018E010BC080913201909133015C
:1011400001969093330180933201C00FD11F169501
:101150000795E6DD8E3281F380913401882339F0E2
:10116000CE019695879580933501C81BD109FF2044
:1011700011F0EE24EA948E2DBE01409109015CDD50
:10118000CDB7DEB7ECE0ECC01F920F920FB60F9216
:1011900011242F933F934F935F936F937F938F937C
:1011A0009F93AF93BF93EF93FF93809138019091FA
:1011B000390101979093390180933801019609F51F
:1011C00010926F00789480918100887F8160809375
:1011D000810080E197E290938900809388001092CB
:1011E0008B0010928A0081E080930101809132018E
:1011F00090913301892B29F080913701882309F4DC
:10120000D9DDFF91EF91BF91AF919F918F917F9128
:101210006F915F914F913F912F910F900FBE0F9063
:101220001F901895629FD001739FF001829FE00D7F
:10123000F11D649FE00DF11D929FF00D839FF00D55
:10124000749FF00D659FF00D9927729FB00DE11D01
:10125000F91F639FB00DE11DF91FBD01CF011124DE
:101260000895991B79E004C0991F961708F0961B02
:10127000881F7A95C9F780950895AA1BBB1B51E179
:1012800007C0AA1FBB1FA617B70710F0A61BB70BF6
:10129000881F991F5A95A9F780959095BC01CD019B
:1012A0000895A1E21A2EAA1BBB1BFD010DC0AA1FA7
:1012B000BB1FEE1FFF1FA217B307E407F50720F0BF
:1012C000A21BB30BE40BF50B661F771F881F991F3A
:1012D0001A9469F760957095809590959B01AC0183
:1012E000BD01CF01089597FB092E05260ED057FDAD
:1012F00004D0D7DF0AD0001C38F4509540953095C3
:1013000021953F4F4F4F5F4F0895F6F79095809589
:10131000709561957F4F8F4F9F4F08952F923F9209
:101320004F925F926F927F928F929F92AF92BF92F5
:10133000CF92DF92EF92FF920F931F93CF93DF93A1
:10134000CDB7DEB7CA1BDB0B0FB6F894DEBF0FBEFE
:10135000CDBF09942A88398848885F846E847D844B
:101360008C849B84AA84B984C884DF80EE80FD804D
:101370000C811B81AA81B981CE0FD11D0FB6F894C3
:10138000DEBF0FBECDBFED010895EE0FFF1F05902C
:10139000F491E02D0994CF93DF938230910510F4FE
:1013A00082E090E0E0913C01F0913D0140E050E0AE
:1013B00020E030E026C06081718168177907E0F095
:1013C0006817790781F4828193812115310531F005
:1013D000D90113969C938E9312972BC090933D0145
:1013E00080933C0126C04115510519F0641775071B
:1013F00018F4AB01E901DF019F0172816381E72FDE
:10140000F62F3097C1F64115510501F1481B590BD4
:101410004430510580F412968D919C91139720973A
:1014200019F09B838A8304C090933D0180933C0113
:10143000FD01329646C0FD01E40FF51F81939193A3
:101440004250504011965C934E933BC020913A011C
:1014500030913B012115310541F420910D0130916E
:101460000E0130933B0120933A0120910F013091FE
:1014700010012115310541F42DB73EB740910B0104
:1014800050910C01241B350BE0913A01F0913B0186
:10149000E217F307A0F42E1B3F0B2817390778F04B
:1014A000AC014E5F5F4F2417350748F04E0F5F1FAA
:1014B00050933B0140933A018193919302C0E0E045
:1014C000F0E0CF01DF91CF910895CF93DF930097A4
:1014D00009F491C0FC0132971382128260913C01A1
:1014E00070913D016115710581F420813181280FD2
:1014F000391F80913A0190913B018217930799F52A
:10150000F0933B01E0933A0176C0DB0180E090E08C
:1015100002C0CD01D901AE17BF0748F412962D9134
:101520003C91139721153105A1F7CD0121C0B3835B
:10153000A283EF01499159919E01240F351FA217F3
:10154000B30779F42D913C911197240F351F2E5F2D
:101550003F4F3183208312962D913C911397338313
:101560002283009729F4F0933D01E0933C0143C0AE
:10157000DC011396FC93EE9312974D915D91A40FAD
:10158000B51FEA17FB0769F420813181240F351F4D
:101590002E5F3F4FEC0139832883228133813B83C7
:1015A0002A83E0E0F0E002C0FB01BC01DB011296FF
:1015B0008D919C9113970097B9F79B012E5F3F4F38
:1015C0008D919C911197820F931F40913A015091F8
:1015D0003B014817590779F4309729F410923D01DF
:1015E00010923C0102C0138212822250304030938C
:1015F0003B0120933A01DF91CF910895F894FFCFFA
:101600000101040400D007F4010F0020003E010096
:021610000000D8
:00000001FF
